{
  "_format": "hh-sol-artifact-1",
  "contractName": "AgroTraceability",
  "sourceName": "contracts/GreenOriginTraceability.sol",
  "abi": [
    {
      "inputs": [
        {
          "internalType": "string",
          "name": "_productId",
          "type": "string"
        },
        {
          "internalType": "string",
          "name": "_name",
          "type": "string"
        },
        {
          "internalType": "string",
          "name": "_farm",
          "type": "string"
        }
      ],
      "name": "addProduct",
      "outputs": [],
      "stateMutability": "nonpayable",
      "type": "function"
    },
    {
      "inputs": [
        {
          "internalType": "string",
          "name": "_productId",
          "type": "string"
        },
        {
          "internalType": "string",
          "name": "_action",
          "type": "string"
        },
        {
          "internalType": "string",
          "name": "_location",
          "type": "string"
        }
      ],
      "name": "addTrace",
      "outputs": [],
      "stateMutability": "nonpayable",
      "type": "function"
    },
    {
      "inputs": [
        {
          "internalType": "string",
          "name": "_productId",
          "type": "string"
        }
      ],
      "name": "getProduct",
      "outputs": [
        {
          "internalType": "string",
          "name": "",
          "type": "string"
        },
        {
          "internalType": "string",
          "name": "",
          "type": "string"
        },
        {
          "internalType": "string",
          "name": "",
          "type": "string"
        },
        {
          "internalType": "uint256",
          "name": "",
          "type": "uint256"
        },
        {
          "internalType": "uint256",
          "name": "",
          "type": "uint256"
        }
      ],
      "stateMutability": "view",
      "type": "function"
    },
    {
      "inputs": [
        {
          "internalType": "string",
          "name": "_productId",
          "type": "string"
        },
        {
          "internalType": "uint256",
          "name": "_index",
          "type": "uint256"
        }
      ],
      "name": "getTrace",
      "outputs": [
        {
          "internalType": "string",
          "name": "",
          "type": "string"
        },
        {
          "internalType": "string",
          "name": "",
          "type": "string"
        },
        {
          "internalType": "uint256",
          "name": "",
          "type": "uint256"
        },
        {
          "internalType": "address",
          "name": "",
          "type": "address"
        }
      ],
      "stateMutability": "view",
      "type": "function"
    }
  ],
  "bytecode": "0x608060405234801561001057600080fd5b506110b2806100206000396000f3fe608060405234801561001057600080fd5b506004361061004c5760003560e01c80630e34b00e146100515780633b917cfe1461006d57806368111cce14610089578063d5fdc500146100bd575b600080fd5b61006b60048036038101906100669190610938565b6100f0565b005b61008760048036038101906100829190610938565b6101f8565b005b6100a3600480360381019061009e91906109df565b610368565b6040516100b4959493929190610ac0565b60405180910390f35b6100d760048036038101906100d29190610b54565b6105cd565b6040516100e79493929190610bf1565b60405180910390f35b6001836040516101009190610c80565b908152602001604051809103902060009054906101000a900460ff161561015c576040517f08c379a000000000000000000000000000000000000000000000000000000000815260040161015390610ce3565b60405180910390fd5b6000808460405161016d9190610c80565b908152602001604051809103902090508381600001908161018e9190610f0f565b50828160010190816101a09190610f0f565b50818160020190816101b29190610f0f565b50428160030181905550600180856040516101cd9190610c80565b908152602001604051809103902060006101000a81548160ff02191690831515021790555050505050565b6001836040516102089190610c80565b908152602001604051809103902060009054906101000a900460ff16610263576040517f08c379a000000000000000000000000000000000000000000000000000000000815260040161025a9061102d565b60405180910390fd5b6000836040516102739190610c80565b908152602001604051809103902060040160405180608001604052808481526020018381526020014281526020013373ffffffffffffffffffffffffffffffffffffffff16815250908060018154018082558091505060019003906000526020600020906004020160009091909190915060008201518160000190816102f99190610f0f565b50602082015181600101908161030f9190610f0f565b506040820151816002015560608201518160030160006101000a81548173ffffffffffffffffffffffffffffffffffffffff021916908373ffffffffffffffffffffffffffffffffffffffff1602179055505050505050565b60608060606000806001866040516103809190610c80565b908152602001604051809103902060009054906101000a900460ff166103db576040517f08c379a00000000000000000000000000000000000000000000000000000000081526004016103d29061102d565b60405180910390fd5b600080876040516103ec9190610c80565b908152602001604051809103902090508060000181600101826002018360030154846004018054905084805461042190610d32565b80601f016020809104026020016040519081016040528092919081815260200182805461044d90610d32565b801561049a5780601f1061046f5761010080835404028352916020019161049a565b820191906000526020600020905b81548152906001019060200180831161047d57829003601f168201915b505050505094508380546104ad90610d32565b80601f01602080910402602001604051908101604052809291908181526020018280546104d990610d32565b80156105265780601f106104fb57610100808354040283529160200191610526565b820191906000526020600020905b81548152906001019060200180831161050957829003601f168201915b5050505050935082805461053990610d32565b80601f016020809104026020016040519081016040528092919081815260200182805461056590610d32565b80156105b25780601f10610587576101008083540402835291602001916105b2565b820191906000526020600020905b81548152906001019060200180831161059557829003601f168201915b50505050509250955095509550955095505091939590929450565b6060806000806001866040516105e39190610c80565b908152602001604051809103902060009054906101000a900460ff1661063e576040517f08c379a00000000000000000000000000000000000000000000000000000000081526004016106359061102d565b60405180910390fd5b6000808760405161064f9190610c80565b908152602001604051809103902060040186815481106106725761067161104d565b5b90600052602060002090600402019050806000018160010182600201548360030160009054906101000a900473ffffffffffffffffffffffffffffffffffffffff168380546106c090610d32565b80601f01602080910402602001604051908101604052809291908181526020018280546106ec90610d32565b80156107395780601f1061070e57610100808354040283529160200191610739565b820191906000526020600020905b81548152906001019060200180831161071c57829003601f168201915b5050505050935082805461074c90610d32565b80601f016020809104026020016040519081016040528092919081815260200182805461077890610d32565b80156107c55780601f1061079a576101008083540402835291602001916107c5565b820191906000526020600020905b8154815290600101906020018083116107a857829003601f168201915b5050505050925094509450945094505092959194509250565b6000604051905090565b600080fd5b600080fd5b600080fd5b600080fd5b6000601f19601f8301169050919050565b7f4e487b7100000000000000000000000000000000000000000000000000000000600052604160045260246000fd5b610845826107fc565b810181811067ffffffffffffffff821117156108645761086361080d565b5b80604052505050565b60006108776107de565b9050610883828261083c565b919050565b600067ffffffffffffffff8211156108a3576108a261080d565b5b6108ac826107fc565b9050602081019050919050565b82818337600083830152505050565b60006108db6108d684610888565b61086d565b9050828152602081018484840111156108f7576108f66107f7565b5b6109028482856108b9565b509392505050565b600082601f83011261091f5761091e6107f2565b5b813561092f8482602086016108c8565b91505092915050565b600080600060608486031215610951576109506107e8565b5b600084013567ffffffffffffffff81111561096f5761096e6107ed565b5b61097b8682870161090a565b935050602084013567ffffffffffffffff81111561099c5761099b6107ed565b5b6109a88682870161090a565b925050604084013567ffffffffffffffff8111156109c9576109c86107ed565b5b6109d58682870161090a565b9150509250925092565b6000602082840312156109f5576109f46107e8565b5b600082013567ffffffffffffffff811115610a1357610a126107ed565b5b610a1f8482850161090a565b91505092915050565b600081519050919050565b600082825260208201905092915050565b60005b83811015610a62578082015181840152602081019050610a47565b60008484015250505050565b6000610a7982610a28565b610a838185610a33565b9350610a93818560208601610a44565b610a9c816107fc565b840191505092915050565b6000819050919050565b610aba81610aa7565b82525050565b600060a0820190508181036000830152610ada8188610a6e565b90508181036020830152610aee8187610a6e565b90508181036040830152610b028186610a6e565b9050610b116060830185610ab1565b610b1e6080830184610ab1565b9695505050505050565b610b3181610aa7565b8114610b3c57600080fd5b50565b600081359050610b4e81610b28565b92915050565b60008060408385031215610b6b57610b6a6107e8565b5b600083013567ffffffffffffffff811115610b8957610b886107ed565b5b610b958582860161090a565b9250506020610ba685828601610b3f565b9150509250929050565b600073ffffffffffffffffffffffffffffffffffffffff82169050919050565b6000610bdb82610bb0565b9050919050565b610beb81610bd0565b82525050565b60006080820190508181036000830152610c0b8187610a6e565b90508181036020830152610c1f8186610a6e565b9050610c2e6040830185610ab1565b610c3b6060830184610be2565b95945050505050565b600081905092915050565b6000610c5a82610a28565b610c648185610c44565b9350610c74818560208601610a44565b80840191505092915050565b6000610c8c8284610c4f565b915081905092915050565b7f50726f6475637420616c72656164792065786973747300000000000000000000600082015250565b6000610ccd601683610a33565b9150610cd882610c97565b602082019050919050565b60006020820190508181036000830152610cfc81610cc0565b9050919050565b7f4e487b7100000000000000000000000000000000000000000000000000000000600052602260045260246000fd5b60006002820490506001821680610d4a57607f821691505b602082108103610d5d57610d5c610d03565b5b50919050565b60008190508160005260206000209050919050565b60006020601f8301049050919050565b600082821b905092915050565b600060088302610dc57fffffffffffffffffffffffffffffffffffffffffffffffffffffffffffffffff82610d88565b610dcf8683610d88565b95508019841693508086168417925050509392505050565b6000819050919050565b6000610e0c610e07610e0284610aa7565b610de7565b610aa7565b9050919050565b6000819050919050565b610e2683610df1565b610e3a610e3282610e13565b848454610d95565b825550505050565b600090565b610e4f610e42565b610e5a818484610e1d565b505050565b5b81811015610e7e57610e73600082610e47565b600181019050610e60565b5050565b601f821115610ec357610e9481610d63565b610e9d84610d78565b81016020851015610eac578190505b610ec0610eb885610d78565b830182610e5f565b50505b505050565b600082821c905092915050565b6000610ee660001984600802610ec8565b1980831691505092915050565b6000610eff8383610ed5565b9150826002028217905092915050565b610f1882610a28565b67ffffffffffffffff811115610f3157610f3061080d565b5b610f3b8254610d32565b610f46828285610e82565b600060209050601f831160018114610f795760008415610f67578287015190505b610f718582610ef3565b865550610fd9565b601f198416610f8786610d63565b60005b82811015610faf57848901518255600182019150602085019450602081019050610f8a565b86831015610fcc5784890151610fc8601f891682610ed5565b8355505b6001600288020188555050505b505050505050565b7f50726f64756374206e6f7420666f756e64000000000000000000000000000000600082015250565b6000611017601183610a33565b915061102282610fe1565b602082019050919050565b600060208201905081810360008301526110468161100a565b9050919050565b7f4e487b7100000000000000000000000000000000000000000000000000000000600052603260045260246000fdfea26469706673582212206b02621800c1bb68c5345454ecc9bcd44955e0d80289cf983d577e960fb4acbd64736f6c63430008140033",
  "linkReferences": {},
  "deployedLinkReferences": {}
}